:020000040800F2
:1000000008060020253C00085B3C00085D3C000819
:1000100000000000000000000000000000000000E0
:100020000000000000000000000000005F3C00082D
:100030000000000000000000613C0008633C000874
:10004000000000000000000000000000653C000807
:10005000653C0008653C0008653C0008653C0008FC
:100060000000000000000000000000000000000090
:10007000653C0008B53D0008653C00080000000034
:1000800000000000593D00080000000000000000D2
:1000900000000000653C000800000000653C00080E
:1000A00000000000653C000800000000653C0008FE
:1000B0000000000000000000000000000000000040
:1000C00000F002F800F03EF812A030C808382418FA
:1000D0002D18AC4201D100F035F80FCCA246AB464A
:1000E0000CA730CF2D1B083F3F197C427F1E544484
:1000F0002D090426F441641EAC4201D300F022F81D
:100100000126334200D0FB1A3343984754465D46DC
:10011000DFE70000E04F0000F04F000070470000F4
:100120000023002400250026103A01D378C1FBD813
:10013000520700D330C100D50B6070471FB51FBDFB
:1001400010B510BD03F0D5FD1146FFF7F7FF03F022
:10015000F3FE03F0EDFD03B4FFF7F2FF03BC03F081
:10016000F3FD0000704700001A0000004409000081
:10017000700A0000540B0000240C00008C0D0000DD
:100180000C11000044120000501300003014000055
:10019000B416000000180000C4180000001A000087
:1001A000801B00004C1D0000882200000C25000070
:1001B00000270000D4270000302C0000282E00006B
:1001C00014300000F035000058370000A03900005E
:1001D000843A00003FFFEDDDCDBFB1A5998F857B4F
:1001E000736B635C56504A45403C3834302D2A27A7
:1001F00024211F1D1B191716141311100F0E0D0C9F
:100200000B0A0A0908080707060605050504040481
:1002100004030303033FFFE6CFBEAFA399918A8394
:100220007C76706B65605C57534E4B4743403D3A5C
:100230003734312F2D2A28262423211F1E1C1B1959
:100240001817161514131211100F0E0E0D0C0C0B9F
:100250000B0A0A090908FFFFF5EBE2D9D0C8C0B6BE
:10026000A798908F9497968D7B696165717D807951
:100270006A5C565A6672767062554F535E696D6756
:100280005B4F494D5761645F5448444750595D582E
:100290004D433E424A535551473E393C444C4F4BE7
:1002A000423935383F4649453D3531333A4143407F
:1002B00038302D30363C3E3B342D2A2C32373936FF
:1002C000302926282E3335322C2623252A2F312E6D
:1002D00029232122272B2D2B25201E2024282927C6
:1002E000231E1C1D21252624201C1A1B1F2223210E
:1002F0001D1918191C1F211F1B1816171A1D1E1C4B
:1003000019161415181B1C1A1714131416191A1879
:1003100015121112141718161411101113151615A1
:1003200012100F0F11131413110F0E0E10121312BF
:100330000F0D0C0D0F1111100E0C0C0C0E0F100FD9
:100340000D0B0B0B0D0E0F0E0C0B0A0A0C0D0D0DE9
:100350000B0A090A0B0C0C3FFFF6B273DED69B6446
:10036000C1BB8757A8A3764C938E6742807B593ACE
:100370006F6B4E32615E442C54513B26494733210A
:10038000403E2D1D38362719302F22162A291E13DC
:1003900025241A11201F160EFFFFF7F0E9E2DBD427
:1003A000CEC4B4ABADB5B7AB978C92A1A79C8A80F5
:1003B00086949A9180777D8B9088787076838981F6
:1003C000726B717D837E716560646F7A7E786A5C22
:1003D000565B68747973665953586470746E6255CD
:1003E0005054606B706A5E524D515C676B665A4F39
:1003F0004A4E58636762574B474B555F635E53489D
:100400004448525B5F5A504641454E585B574D43F6
:100410003F424B5458534A403C4048515450473E49
:100420003A3D454E514D443B383B434B4E4A413992
:10043000353840484B473F3733363E4548443C35D6
:1004400031343B4245423A332F323940423F383112
:100450002D30373D403D362F2C2E343B3D3A332D49
:100460002A2C32383B38312B282B303638362F297E
:1004700027292F3436342E2825272D3234322C26A6
:1004800024262B3032302A252224292E302E2823D0
:100490002123282C2E2C2722208078706860595226
:1004A0004B443E3934302C29262523232324252769
:1004B0002A2D3034383D42474C51575C61666B7091
:1004C00074787B7E8183848585858483807E7B7739
:1004D000736E69635E58514B443E37312B251F1AAA
:1004E00015110C09060402010101020306090C1092
:1004F000151A20262D343B424A515961686F767D8A
:10050000848A90959A9EA2A5A7A9AAABAAAAA9A7F0
:10051000A5A29F9B97938E8A85807B76726D696575
:10052000615E5B59575656555657595B5E62666B0E
:1005300070767C838A91989FA7AFB6BEC5CCD3DA7C
:10054000E0E6EBF0F4F7FAFDFEFFFFFFFEFCFAF742
:10055000F4EFEBE6E1DBD5CFC9C2BCB5AFA8A29DF5
:1005600097928D898582807D7C7B7B7B7C7D7F8261
:1005700085888C90959A9FA4A9AFB4B9BEC3C8CC06
:10058000D0D3D6D9DBDCDDDDDDDBDAD7D4D0CCC708
:10059000C2BCB5AEA7A0989088808A949EA7B1BA35
:1005A000C2CAD2D9E0E6EBF0F4F7FAFCFDFEFFFF99
:1005B000FEFDFCFAF8F6F4F2EFEDEBE8E6E4E3E139
:1005C000E0DFDFDEDEDEDFE0E1E2E3E5E6E8EAEB06
:1005D000EDEFF0F2F3F4F5F5F6F6F6F5F5F4F3F2E7
:1005E000F0EFEDEBEAE8E6E5E3E2E1E0DFDEDEDEB8
:1005F000DFDFE0E1E3E4E6E8EBEDEFF2F4F6F8FA52
:10060000FCFDFEFFFFFEFDFCFAF7F4F0EBE6E0D99F
:10061000D2CAC2BAB1A79E948A80766C62594F46FC
:100620003E362E27201A15100C090604030201017C
:1006300002030406080A0C0E111315181A1C1D1FBC
:1006400020212122222221201F1E1D1B1A181615CF
:100650001311100E0D0C0B0B0A0A0A0B0B0C0D0ECE
:100660001011131516181A1B1D1E1F2021222222DD
:100670002121201F1D1C1A181513110E0C0A080623
:10068000040302010102030406090C10151A2027B5
:100690002E363E464F59626C768093A5B6C7D5E29A
:1006A000EDF5FBFEFFFFFCF7F2EBE3DCD5CEC8C3B4
:1006B000BFBDBCBDBFC2C6CCD1D7DDE2E7EAECED21
:1006C000ECE9E4DED6CDC2B7ACA0958B827A74702B
:1006D0006E6E71767D858F9BA7B3C0CCD7E1E9EFB5
:1006E000F4F6F6F3EFE8DFD5CABEB2A5998E837AA9
:1006F000726C6865646567696D7175797C7F8080EF
:100700007F7C78726B635950463C332B241F1C1B33
:100710001C1F252D37435160708090A0AFBDC9D3F9
:10072000DBE1E4E5E4E1DCD5CDC4BAB0A79D958E6C
:1007300088848180808184878B8F9397999B9C9BF1
:1007400098948E867D72675B4E42362B2118110D70
:100750000A0A0C11171F2934404D5965717B838A91
:100760008F9292908C867E756B6054493E332A221C
:100770001C1714131416191E23292F343A3E414313
:100780004443413D38322B241D150E09040100025B
:10079000050B131E2B394A5B6D80818486898C8FF3
:1007A00093969A9EA2A6A9ADB1B4B7B9BCBEBFC07C
:1007B000C0C0C0BFBDBBB9B6B3B0ACA8A4A09C9824
:1007C00094908D8987848281808080818284878BC8
:1007D0008F93989EA3A9B0B6BDC4CBD1D7DEE3E971
:1007E000EEF2F6F9FBFDFFFFFFFEFCFAF7F3EFEB8D
:1007F000E6E1DBD5CFC9C2BCB6B0AAA49F9A969257
:100800008E8B8885838281808080808080818282B7
:10081000838384848484838281807F7C7A777471EB
:100820006D6A66625E5A57534F4C49474442414095
:10083000404040414345474A4D5054585C606468CD
:100840006C707377797C7E7F8080807F7E7C797509
:10085000716D68625D57504A433C352F29221D1740
:10086000120E0A070503010101020406090D111504
:100870001A1F252B31373E444A50565C61666A6E1A
:100880007275787B7D7E7F8080808080807F7E7E99
:100890007D7D7C7C7C7C7D7E7F00000070343235E9
:1008A000410000092B0900092B0900092909290920
:1008B000000900092B0900092B0900092909290948
:1008C000000900092B0900092B092B062D092B060D
:1008D0002909260900092B0900092B092B062D09D6
:1008E0002B06290926092B0C280900092B0C28099D
:1008F0000009290C26090009290C260900092B09E1
:100900002B0C2D092B092809240928092B112B0C44
:10091000280900092B0C28090009300C2D090009B1
:10092000300C2D0900092B092B0C2D092F092B093F
:100930002D092F09301130093009000C3009300918
:10094000000C2B092B09000C2B092B09000C2D0C7A
:100950002D092D092D092F0C300932112B0C2809D6
:1009600000092B0C28090009290C26090009290C6B
:10097000260900092B092B0C2D092F0C2B092B09FB
:100980003011240928062B06300930092D092D09BC
:100990002F0C240928062B06300930092D092D09B2
:1009A0002F0C30092B062D062D092B062D0630099C
:1009B0000009000C1C20241100005C343235410079
:1009C000180C130C180C00091309180C130C170C35
:1009D00000091309180C130C1F0621091F061D0915
:1009E0001A09180C130C1F0621091F061D091C09E2
:1009F000180C130C180C180919091A0C150C1A0CE0
:100A00001A091D091F0C130C180C1C0C1A0C1A0CBB
:100A10001F0621091F061D091A09180C130C180CB2
:100A200018091C091D0C180C1D0C1D0921091F0C8F
:100A3000130C1F0C1F0C1F0C130C1806180918069A
:100A40001A091C091D0F1D0F1C0F1C0F1A0F1A0F5E
:100A50001F0C1D0C1C0C1A0C180C130C180C18096C
:100A600019091A0C150C1A0C1A091D091F0C130C64
:100A70001F091D091C091A091F0C130C180C000C66
:100A8000180C000C000C00091309180C000C000CC9
:100A9000000913091809130615061509130615068A
:100AA00018090009000C14201811000000000000B3
:100AB0001C01FC0234070000310300000A000000A2
:100AC000EE000000000000000000000052080000DE
:100AD000310300000A000000EE00000000000000EA
:100AE00000000000703432351F09240924091F0951
:100AF0002409260928092B0930092D092B0C2D0959
:100B000024092409280928092609241041001F095D
:100B10002409240E260928092B0930092D092B0C3C
:100B20002D092409240C260C281028092D092B0E28
:100B30002D0930092D092B092D092B0928092B090D
:100B400028092409280926092409241015206810D9
:100B500000005C3432351C0F1C091F09240C1D09D0
:100B600021062306240C210C200C1D0C1C091F0936
:100B70001C091F091C091F09410018091F091C092C
:100B80001F091C091F09240C1D092106230624091D
:100B90001F091D0921091C0921091F092309180919
:100BA0001F091C091F091C091F09210924091C0907
:100BB00024091B0924091A092409210924091C09EB
:100BC0001F09180F1D0C1C091F091C091F091C0CEB
:100BD00014209F3618100000000000009B01FD0249
:100BE0007C09000031030000190000006C000000C7
:100BF0000000000000000000EA09000031030000CE
:100C0000190000006C00000000000000000000005F
:100C100070343235270B2706260B2406220F41009D
:100C2000220B2406260B2606290B2906210B21065A
:100C30001F0B1F061F0B1F06240C000C240B240681
:100C4000240B24062B0B2B062B0B2B062B0B2B0616
:100C5000260B2606290F2E0B2E06290B2906270BFD
:100C600029062B0B2B06260B2606260B2406220F05
:100C7000082000005C343235180C1D0B1606160FC8
:100C80004100000B1106160B11061A0F0F0B16066A
:100C90001B0B16061F0F110F110C110C160C110C4B
:100CA000160B1106160B18061A0F180F1D0B11063E
:100CB0001D0B1B06160F072000000000000000009F
:100CC0003901F402A80A0000310500000A00000002
:100CD000AD00000000000000000000000C0B000050
:100CE000310500000A000000AD0000000000000017
:100CF000000000007034323542001F30270C250CF4
:100D0000240F2209240925092209200F2409250975
:100D1000270924092209240925092209240925096A
:100D2000270924092209240925092209270C250C51
:100D3000240F2209240925092209200F042000007C
:100D40005C34323542001F301B0C1F0C200F0F0982
:100D50001B0916091B09180F14091B0918091B097F
:100D60000F091B0916091B0914091B0918091B097E
:100D70000F091B0916091B091B0C1F0C200F0F095B
:100D80001B0916091B09180F0420000000000000B1
:100D90001C01F9028C0B0000310500000A00000064
:100DA000AD0000000000000000000000D80B0000B3
:100DB000310500000A000000AD0000000000000046
:100DC000000000007034323530092D092D0C2E0939
:100DD0002B092B0C29092D0930092E092D092B0966
:100DE000290C30092D092D0C2E092B092B0C290952
:100DF0002B092D092E0930093009300C30092D0935
:100E00002D092D092E092B092B092B0929092D093B
:100E1000300930092D092D092D0C2B092B092B091F
:100E20002B092B092D092E0C2D092D092D092D0912
:100E30002D092E09300C30092D092D092D092E09F7
:100E40002B092B092B0929092D09300930092D09F6
:100E50002D092D0C00005C3432351D0924092109AF
:100E600024091C0924091F0924091D0C210C24092B
:100E70002209210C1D092409210924091C0924091E
:100E80001F0924091D092409210924091D09240910
:100E9000210924091D092409210924091C092409FF
:100EA0001F0924091D092409210924091D092409F0
:100EB000210924091C0924091F0924091C092409E2
:100EC0001F0924091D092409210924091D092409D0
:100ED000210924091D092409210924091C092409BF
:100EE0001F0924091D092409210924091D092409B0
:100EF0001D0C000000000000BE01F4025C0C0000AC
:100F0000310500000A000000AD00000000000000F4
:100F100000000000EE0C0000310500000A00000097
:100F2000AD00000000000000000000006634323513
:100F300000091C09410070342109200921092309F5
:100F40002409230924092609663428102B092B09B2
:100F500028102D092B09280F6809280926092409BA
:100F6000260624062109610F280C260624062109DD
:100F7000610F61091C09210920092109230924099C
:100F800023092409260928102D092B09280F68098F
:100F90002D062B062D092B092D062B062809680C7A
:100FA0006809280926092409260624062109610F53
:100FB000280C260624062109610F610928092D0E37
:100FC0002B092D0B2B062D0B3006300B2F062D0F6A
:100FD00030092D092B0F6B092B092D092B0928101E
:100FE000680928092D0E2B092D092B092D0B2B061D
:100FF0002D0F6D092D09300B2D062B0F6B092B09B9
:101000002D092B09280F6809280926092409260615
:1010100024062109610F61091C094C3421092009AA
:1010200021092309240923092409260928102B0949
:101030002B0928102D092B092D092B09280C6809CB
:10104000280926092409260624062109610F6109B9
:101050001C096634210920092109230924092309CF
:1010600024092609703428102D092B09280F680738
:101070002D072B072D092B092D092B09280C680991
:101080002809260924096634B020B6302609240927
:10109000210F61091C09053026092409210F240CA0
:1010A000260624062109610F240C2110240C21118D
:1010B00000004C343235000C41005C340011053521
:1010C0004C34180C1F0C180C1C092409180C1F0C8C
:1010D000180C1C092409180C1F0C18091F091C09DD
:1010E0002009210928091C092609210924092409A4
:1010F0002109210928091C092609210924091C0C98
:101100000011180932351F091E091F090A35180F69
:10111000180932351F091E091F090A35180F180949
:1011200032351F091E091F09200F0535210928091D
:101130001C09260921092409240921092109280952
:101140001C092609210924091C09210932351D0E13
:101150001C091D0B1C061D0B2106210B1F061D0F54
:1011600021091D091C0F5C091C091D091C09181007
:1011700058091C091D0E1C091D091C091D0B1C0604
:101180001D0F5D091D09210B1D061C0F5C091C09A3
:101190001D091C09180F58092409230920092109D0
:1011A0001C095C10433400110535180C180618068C
:1011B00018061806180C580C180C180618061806ED
:1011C0001806180C580C180C1806180618061806DD
:1011D000180C580C210C240624062406240632354B
:1011E000240923090535210C4C3400115C34180CFA
:1011F0001806180618061806180C580C180C1806AD
:10120000180618061806180C580C180C180618069C
:1012100018061806180C580C4C34B620C430210C93
:101220002806280628068636280632358D362809EF
:101230002609240923097F360430210C28062806B4
:1012400028062806280C680C210C1C061C061C0607
:101250001C061C0C5C0C210C1C061C061C061C0627
:101260008D361C0932359F360009000CD436181112
:1012700000000000000000006301FD02C40D00003A
:10128000310600000B000000EE000000000000002E
:10129000000000004A0F0000310600000B000000B3
:1012A000EE00000000000000000000007034323545
:1012B000270E2509240C220C200C220C240C200CB7
:1012C0002209240925092209240E2209200C1F0CB9
:1012D000200F270E2509240C220C200C220C240C94
:1012E000200C2209240925092209240E2209200C98
:1012F0001F0C200F220E2409250C220C240E250978
:10130000270C220C24092609270C29092B092C0C4F
:101310002B0C290C270F270E2509240C220C200C3E
:10132000220C240C1F0C2909290929092909270E37
:101330002509240C220C201100005C343235240EC7
:101340002209200C1B0C180C1B0C200C000C1B0F72
:10135000140F180C160C140F240E2209200C1B0C51
:10136000180C1B0C200C000C1B0F140F0F0C0F0C77
:10137000140F1F0E2009220C1F0C20101F0C200C14
:10138000000C140C000C160C220C1F0F240E22094A
:10139000200C1B0C180C1B0C200C000C190F180E29
:1013A00019091B0C0F0C14110000000000000000B4
:1013B000F000F90244110000310500000A000000AD
:1013C000AD0000000000000000000000D21100008D
:1013D000310500000A000000AD0000000000000020
:1013E000000000007034323524092809280B260635
:1013F000240F41002B0B2B062B092809240B240654
:1014000024092609280B280626092409260F280B5B
:1014100029062B092D092B0B2B062B092809260B36
:10142000260624092609280F2B09300930092B0923
:1014300028092B092B09280924092809280B260625
:1014400030203230240F0830240F640F00005C3449
:1014500032351F0C1F0C1C091F09180C180F1C0F0C
:10146000180F1F091D091C091A09180F1C0F1F0F3F
:10147000180C1F0C1C0F180F1F0C1F0C1C091F0928
:10148000180C180C1F0C1C0C1F0C1A0C1E0C1F091E
:101490001D091C091A09180C1F0C1C0C1F0C170C19
:1014A0001F0C180C1F0C240F1F0F1F0C1F0C1C09E6
:1014B0001F09180C580F0000000000003901FD0240
:1014C0007C12000031030000190000006C000000D5
:1014D0000000000000000000E612000031030000E0
:1014E000190000006C000000000000000000000077
:1014F00070341435270C270C270E2509220C250CD7
:10150000270C000C270C270B2706270B2706290C76
:10151000270B2506220B2206220C000C270C250B7C
:101520002506250B2506250C270B2506220B220652
:10153000220C000C270B2506250B2506270B25065C
:10154000250B2506250B2706250B25062710000C45
:1015500000005C3432351F0C000C1B0C000C1F0CFF
:10156000000C1B0C000C1F0C000C1B0C000C1F0CA7
:10157000000C1D0C160C1F0C000C200C000C1F0C7A
:10158000000C1D0C160C1F0C000C1B0C000C200C6E
:10159000160C1F10000C000000000000F000F40208
:1015A00088130000310500000A000000AD000000B3
:1015B0000000000000000000EA13000031050000F8
:1015C0000A000000AD000000000000000000000064
:1015D000703428352B0905352809280928092835AC
:1015E0002809053524092409240928352409053545
:1015F0001F091F091F0928351F0905351C091C096A
:101600001C091F0C1F0C1F0C1F0C2835000F000994
:101610002B092A0929091C091809180918091C0984
:101620001809180918091D091D091C091C091A0F98
:101630001D091D091C091C091A091A09210921097A
:101640001F091D091C091A09180C18091A093C352B
:101650001C0E1C091C0C1C0918091D091D091D095B
:101660001C091A0C1A091C091D0E1D091D0C1D0947
:101670001A091F091F091F091D091C0C28356406BA
:101680006606680669062B0C280C2B09300E2B0CFD
:10169000280C2B09260E260C2609280929072807BD
:1016A000260728092D092B092F092D092A092B0F97
:1016B000280900092B0900092B0F28092D092B09DE
:1016C0002809240F2609280C24092109240C26099D
:1016D000280C240C26092D0E2B0C260C2809240E70
:1016E00032352B090A3528092809280932352809F5
:1016F0000A35240924092409323524090A351F0929
:101700001F091F0932351F090A351C091C091C094C
:10171000000C1F09000918090009000C00005C34C6
:10172000283500090009000C000F001105351E0CBA
:101730001E0C1E0C1E0C28351F0920092109230927
:1017400024090009000C18090009130900091809E7
:101750000009130900090E090009130900090E09FF
:101760000009130900090E090009130900090E09EF
:101770000009130900090E090009130900091809D5
:101780000009180900090C091309180913090C09A3
:101790001309180913090E091309170913090E096A
:1017A0001309170913090E091309170913090E095B
:1017B0001309170913090C091309180913090C094E
:1017C0001309000C180C180C1809180E180C180C1A
:1017D0001309130E0E11170C1A0C130C1509170907
:1017E000180C130C180C170C150F150913091109F7
:1017F00010090E0F0E0F0C0C0C0C0E0F130C130C0B
:10180000180F18090009000C000F0011000C100936
:10181000000913090009000C00000000000000008E
:101820000401F70268140000310500000A000000FE
:10183000AD0000000000000000000000B615000030
:10184000310500000A000000AD00000000000000AB
:101850000000000070341E35240C240C240C240CD1
:101860002406240626062606280628062906290612
:1018700028092609240C24092609280929092809E8
:101880002609240C280929092B092D092B092909C6
:10189000280C240C240C240C240C240624062606D4
:1018A0002606280628062906290628092609240CC2
:1018B000240926092809290928092609240C2809A8
:1018C00029092B092D092B092909280C240C240C82
:1018D000240C240C240624062606260628062806A0
:1018E0002906290628092609240C00005C34323513
:1018F0001C0918091D0918091C0918091A091809D1
:101900001C0C180C1F091D09180C180C180C1809B0
:101910001709180C180C180C18091709180C1C09B1
:1019200018091D0918091C0918091A0918091C0C9D
:10193000180C1F091D09180C000F18091A091C0999
:101940001D091C091A09180C1C091D091F09210968
:101950001F091D091C0C1C091A09180C1C0C180C59
:101960001F091D09180C0000000000008701F40287
:10197000EC160000310500000A000000AD00000078
:101980000000000000000000841700003105000086
:101990000A000000AD000000000000000000000090
:1019A0007034323542001930290B270625092709E2
:1019B00029092909290C27092709270C29092C0994
:1019C0002C0C290B2706250927092909290929098A
:1019D000290927092A09290B2706250F04200000B9
:1019E0005C34323542001C30190920091D092009D8
:1019F000190920091D09200918091E091B092009B8
:101A000019091D0920091E09190920091D092009A4
:101A1000190920091D09200914091E0914091809AA
:101A2000190914090D0C042000000000000000003A
:101A30003901F40238180000310500000A000000E6
:101A4000AD00000000000000000000007818000059
:101A5000310500000A000000AD0000000000000099
:101A60000000000070341E355100300B2B0B2D0B85
:101A70002F0B300B2B0B2D0B2F0B41003009300699
:101A80003009300630093006300930063209300698
:101A90002F092D062B0B000B30093006300B3009B7
:101AA0003006300B3409300632092F062620293043
:101AB000300B000B0C302B244130300B300930063A
:101AC0006D0E6D0B300930066B0E6B0B6B092B0620
:101AD0002D092D062D092D062D092D062F0930065D
:101AE000720E720E0B30300B000B320930063209C9
:101AF0002F064334301000005C34323551001C0B8B
:101B00001C0B1D0B1A0B1C0B1C0B1D0B1A0B410085
:101B1000240B230B210B1F0B1D0B1F0B1F0E240B64
:101B2000210B210B210B1F0E1A201C301C0E0C3018
:101B30001E242F30180B000B1D0B210B1D0B000B4F
:101B40001C0B1F0B1C0B000B1A0E1A0E1F0B1F0B6E
:101B5000210B230B0B301C0E1F091F061F091F062C
:101B60004C34181000000000000000003901F4029D
:101B7000FC180000310500000A000000AD00000064
:101B80000000000000000000901900003105000076
:101B90000A000000AD00000000000000000000008E
:101BA0007034323500092B092D092F09300C2B0C0C
:101BB000280C240C2D0F2D092D092F092D0941006A
:101BC0002B0C290C280C260C240F64092B092A093C
:101BD0002B0928092B092A092B0928092809270973
:101BE0002809240928092709280924092809260978
:101BF0002409260928092609240926092B092D0963
:101C00002B0928092B092D092B0928092B092D0936
:101C10002F09300C2B0C280C240C2D0F6D092D09CD
:101C20002F092D0910202B0C290C2D0C2F0C240F03
:101C3000641100005C343235000929092909290999
:101C400024092B091F092B0924092B091C092B091D
:101C50001D092D0918092D091D0900091E0C410037
:101C60001F0C1F0C210C230C18092B091F092B0911
:101C700018090009000C240928091F09280924094A
:101C80002B091F092B0918092B091F092B091809F2
:101C90002B091F092B091A092B091F092B091A09DE
:101CA00023091F092309240923091F0923092409DA
:101CB00000091F0C1C091F091C09180918091C0917
:101CC0001F091C091D092409180924091D090009F7
:101CD0001E0C16201F0C1F0C210C230C18092B099D
:101CE0001F092B0918110000000000001C01F70259
:101CF000381A0000310500000B0000006C000000E5
:101D00000000000000000000CC1A000031030000B9
:101D10000B0000006C00000000000000000000004C
:101D20007034173541001F091C09210921091F09B9
:101D30001F091C0C24092409210921091F0C000C6E
:101D40005C342B092D092B092D092B092B092B0993
:101D5000000970341F091C09210921091F091F09E5
:101D60001C0C24092409210921091F0C000C5C34D6
:101D70002B092D092B092D092B092B092B090009EA
:101D800070341F0C1C0921091F091F091C091C099B
:101D900024092409230921091F0C000C240C230900
:101DA00021091F091F091C0C210921091F091F09ED
:101DB0004A204E30180C000C21000330180C1C096E
:101DC0001F09240C230921091F091F091C0C593460
:101DD000210921091F091F094C34180F00005C3428
:101DE0001C3541000C0C110C100C0C0C110C180CB7
:101DF00017091509130C4C3418061F061C061F067C
:101E000018061F061C061F0617061F061A061F06C1
:101E1000170900095C340C091309110C0C0910098D
:101E2000130C11091509180C17091509130C4C345A
:101E300018061F061C061F0618061F061C061F068E
:101E400017061F061A061F06170900095C340C093D
:101E50001309100913090C091309100913090C09B6
:101E600015091109150913091309150917090C0F8B
:101E70004C0F110C130C4E2052300C0913090C0C92
:101E8000033018091309150917091C0C8D361F0991
:101E90001D091C099F361C09180C4C341D09B63647
:101EA0001D091C091A0943341009D4361309FF36D9
:101EB0000C0C00000000000087010302B81B0000AA
:101EC0003103000019000000EE00000000000000D7
:101ED00000000000761C0000310500001900000021
:101EE000AD0000000000000000000000703432353A
:101EF000280E29092B0C280C2B0C2D092B09280C3A
:101F0000240C2609260928092409210C1F0C241158
:101F1000280C26092409260F280924092109240947
:101F20001F0F21091F091C091F09210C240C261150
:101F3000280E29092B0C280C2B0C2D092B09280CF9
:101F4000240C2609260928092409210C1F0C240F1A
:101F50006409210923092409260C260C260F260EC4
:101F60002609260C280C290C280C260C260C260CDD
:101F7000280C210F1F0E1F091F0F240E2409240CEB
:101F8000260C280C290C210C240C260F6609230989
:101F900024092609280C26092409260F28092409C2
:101FA000210924091F0F21091F091C091F09210CE0
:101FB000240C2611280E29092B0C280C2B0C2D097A
:101FC0002B09280C240C260C28092409210C1F0C91
:101FD00024115C34000F00091F0921092309240F73
:101FE0001C091F092409230921091F091C091F09AC
:101FF000210C240C26104C341F0C2B0F28091F0910
:10200000240926092809240929092809240923095A
:1020100021091F091D0C1F091C09180C1D0C1C0986
:102020001A091C091D091F0F5934230917091A0918
:102030001D0921091D091A091709220916091A097A
:102040001F0915091C09210919091A09210918096B
:10205000210917091C0920092309150921091C094F
:102060001F091E091C091A091809170E18091A094F
:1020700017091F091D091C091A091C091D091F0937
:102080001C09230C24091F09260C1D091A09210CFF
:1020900023091F092409210923091E061F062106F9
:1020A0002306240626067034280C26092409260C4B
:1020B0006606230624062606280924092109240980
:1020C0001F0C5F061C061D061F0621091F091C099F
:1020D0001F09210C2406210623062406260F660666
:1020E0001F061E061F062106230624062606280EA6
:1020F00029092B0C280C2B0C2D092B09280C240C3E
:10210000260C28092409210C1F0C240F64091C0922
:102110001F0924092609260928092409210C1F0C56
:102120002411181100005C343235000C240C230CEF
:1021300024092309210924092909280924091F0937
:102140001C0C1D091D091F091C09180C170C180966
:102150001D091C091A09180F240C23092109230F32
:10216000240921091D0C1C0918091A091C091D093B
:102170001C0918091C091D0C210C23092409230919
:1021800021091F091D091C091A09180C240926090F
:10219000280C240C280924092909280924091F09C5
:1021A0001C0C1D0C1F091C09180C170C18091A0906
:1021B0001C091D091F0F230917091A091D092109E7
:1021C0001D091A091709220916091A091F091509F3
:1021D0001C09210919091A092109180921091709D6
:1021E0001C0920092309150921091C091F091E09B9
:1021F0001C091A091809170918091A091C091D0CC4
:102200001C091A091C091A091C091D091F091C09A6
:10221000230C24091F09260C1D091A09210C230966
:102220002409230921091F0F18091F091D091C0969
:102230001D091A0920092309210E15091609180973
:102240001A091C091D091C0918091709150C140C79
:1022500013091A091F092109230921091F0C18094B
:102260001F0924092609280C2409230922091F090A
:1022700024092209210918091C091F091E0C1A0921
:102280001C091D091A09170C18091D091C091A092E
:10229000180F70341C0C1A0918091A0F1C09180998
:1022A00015091809130F1D091C0918091C091D0916
:1022B0001809210C23091F092409210923092109CF
:1022C0001F091D091C0918091C091D091F0C1C0CDC
:1022D0001F0C21091F091C0C180C1A091A091C09CA
:1022E0001809150C130C180F580921092309240982
:1022F000260C260C260F260E2609260C280C290C47
:10230000280C260C260C260C280C210F1F0E1F094A
:102310001F0F240E2409240C260C280C290C210C38
:10232000240C26105C341F061D061C061A06180C09
:1023300017091509140617061A061D061C091309A4
:10234000150C1806170615091606130617061A06A1
:1023500018091A061C061D091C0918061F06240662
:102360002806290C280C26062406230621061F060B
:102370001E061D061C061A0C130C18061C061F064A
:102380001C062409180917061A061F061C06230C2A
:1023900016061C061F061C06240922091506180627
:1023A0001C06180621091F091E091A091509150618
:1023B00018061D061C061A06180617061506170924
:1023C00018091D091C091A09180F1D091D091F09E3
:1023D0001C09180C170C8D361F091C091A0918093D
:1023E0009F361A0C18091A09D4361C110000000077
:1023F0000000000074010002841D00003103000091
:102400000B000000EE0000000000000000000000D3
:10241000BE1F0000310300000B000000EE000000B2
:10242000000000000000000070341E35170615067D
:1024300000091A091A091706150600091A091A09C6
:102440001706150600091A0900091A0900091909D1
:10245000190917061506000919091909170615069D
:1024600000091909190917061506000919090009B3
:10247000190900091A091A09170615061E091A0969
:102480001A09170615061E091A091A09170615064C
:102490001E091A0921091A09230919091909170618
:1024A000150623091909190917061506230919091B
:1024B00019091706150623091909210919091E0901
:1024C0001A091A091706150600091A0900091A0936
:1024D00000091A0900091A09000F00091909190948
:1024E0001706150600091909000919090009190933
:1024F00000091909000F00091A091A09170615061B
:1025000000091A091A091706150600091A091A09F5
:102510001706150600091A0900091A090009190900
:1025200019091706150600091909190917061506CC
:1025300000091909190917061506000919090009E2
:10254000190900091A091A0C1A090009000C0009D6
:1025500019091A09000900005C341E3500090E092A
:102560001209120900090E091209120900090E09BF
:1025700012090B09120909091309130900090909AC
:1025800013091309000909091309130900090909A5
:1025900013090B0913090E09120912090009000990
:1025A000120912090009000912091209000900099B
:1025B0001209000912090009130913090009000989
:1025C0001309130900090009130913090009000977
:1025D00013090009130900091209120900090E095B
:1025E0001209090912090E091209090912090E092D
:1025F0000D090E090F091009130913090009100923
:1026000013090B091309100913090B091309100900
:102610000F091009110912091209120900090E09FE
:102620001209120900090E091209120900090E09FE
:1026300012090B09120909091309130900090909EB
:1026400013091309000909091309130900090909E4
:1026500013090B0913090E091209120C12091503AB
:102660001303150356095603150900091309120926
:10267000000900000000000039010002C022000033
:10268000310500000A000000AD000000000000005D
:1026900000000000F0230000310500000A000000E7
:1026A000AD00000000000000000000007034323572
:1026B0004100300C300B2B063009320E340B2B0648
:1026C000340B2B06340B3206300C320C320B310635
:1026D000320B2B062F0B32063011240C240B240650
:1026E000240C260C280C280B2706280B2606240C65
:1026F000260C260B2506260B2406230C280C280B5B
:102700002706280B2606240C240C240B2406240C54
:10271000260C280C280B2706280B2606240C260C32
:10272000260B26062813260624112B0C2B0B2B0612
:102730002D132D062B11280C280B280629132906EA
:1027400028102B072B072B07240C240B2406240C02
:10275000260C280C280B2706280B2606240C260CF2
:10276000260B2506260B2406230C280C280B2706EF
:10277000280B2606240C240C240B2406240C260CDF
:10278000280C280B2706280B2606240C000C2607ED
:1027900026072607281326062411172000130000F9
:1027A0005C3432354100180C1C0C150C1D0C180C37
:1027B0001C0C150C1C0C1A0C1D0C130C1A0C180CF0
:1027C000210B1F061F0B1306150C180C000C130C05
:1027D000000C180C000C130C000C1A0C000C130C41
:1027E000000C180C000C130C000C180C000C130C33
:1027F000000C180C000C130C000C1A0C000C130C21
:10280000000C180C130C180F180C1C0C1A0C1D0CB7
:10281000180C1C0C1C0B1306130C180C130C1A0CA4
:10282000150C180C1C0C1F0F180C000C130C000CB2
:10283000180C000C130C000C1A0C000C130C000CE0
:10284000180C000C130C000C180C000C130C000CD2
:10285000180C000C130C000C1A0F130F180C130C8F
:10286000180F15200000000000000000E700F4022F
:1028700044250000310500000A000000AD00000002
:1028800000000000000000003826000031050000B4
:102890000A000000AD000000000000000000000081
:1028A0007034323542002030290B2906260B2906C8
:1028B0002E0B2E062D0B2B06290B29062B0B2B0678
:1028C000290C000C2B0B2B062B0B2906270B27069C
:1028D000270B2606240B2406260B2606240C000CA8
:1028E000260B2906260B29062B0C2B0C240B29065C
:1028F000240B2906220F042000005C3432354200EC
:1029000018301A0C220C1A0C220C1A0C220C1A0B5E
:102910002206210B20061F0C1F0C1F0C1F0C1F0C66
:102920001F0C210B1C061B0B1806160C160C1B0C7F
:102930001B0C1D0C110C1A0F0420000000000000DD
:102940003901F40238270000310500000A000000B8
:10295000AD00000000000000000000009227000011
:10296000310500000A000000AD000000000000007A
:102970000000000070341C352B0E2B062B062B0E8E
:102980002B062B062B09000C2B09000C2B09000928
:102990002B0C0E3528091C35240C0E351F091F0978
:1029A0001F091C352109240929092D092B0E0E3573
:1029B00028091C3529092609260929092809240C72
:1029C0000E3528091C352609210923092409260F5B
:1029D0002B0C0E3528091C35240C0E351F091F0938
:1029E0001F091C352109240929092D092B0E0E3533
:1029F00028091C3529092609260929092809240C32
:102A00000E3528091C352609230C2409640F0039CA
:102A1000EF014C34000C003831061F0C1D0F000C68
:102A20001C0C1D0C1A0C1C0F1A0F180C1F0C210C5F
:102A30000039AD001F0C603400383105240C1F092B
:102A40002409260F260C1F092609280F280B240B02
:102A5000280929092B092D0C2B0B280B2409260FDB
:102A6000240C1F092409260F260C1F092609280FEC
:102A7000280B24062409280929092B092D0C2B0BC6
:102A8000280628091F09240F4C34000926092609A5
:102A90002609260C24092609280F2B0F00092609D0
:102AA00026092809260C240920091F0C2810603447
:102AB000240B0E352406240924091C352D092B0965
:102AC000000C210B0E352106210921091C352B098B
:102AD0002909000C4C34000C280C290C2B0C240C5C
:102AE000240C6034260C280C26111F092409240903
:102AF0002609260C280C70342B0C0E3528091C35A1
:102B0000240C0E351F091F091F091C352109240932
:102B100029092D092B0E0E3528091C3529092609EE
:102B2000260929092809240C0E3528091C352609EF
:102B3000210923092409260F2B0C0E3528091C35E1
:102B4000240C0E351F091F091F091C3521092409F2
:102B500029092D092B0E0E3528091C3529092609AE
:102B6000260929092809240C0E3528091C352609AF
:102B7000230C2409640F003831062B092809280981
:102B8000240924091F091F091C092C0929092909DD
:102B900024092409200920091D094C341F0924098E
:102BA0000E352409260960342609280928092B092D
:102BB0001C354C341F0926090E35260929096034B5
:102BC00029092B092B092F091C35703400090038FD
:102BD00031051F0C0E351F061F0621092109230987
:102BE00023091C35240C0010000F00005C341C3538
:102BF0001F0E1F061F061F0E1F061F060E351F097C
:102C00001F0921091F091F0922091F0923091C3552
:102C1000240C230C210C240C1D0F1C0C180C1F0C55
:102C2000200C210C1F0C1E0C1D0C1F09210923094F
:102C30001F09240C230C210C240C1D0E1D091C0C37
:102C4000210C1A0E1A091F090E351F09000C1F0945
:102C50001C351F090009180E0038310540341F0CBF
:102C60000039EE002410230C2411000C1F0F1D0C42
:102C70001C0F1A0C230C4C3400383103240F230F83
:102C80001F0F240F240F1D0F1A0F1F0C230C240FCE
:102C9000230F1F0F240F240F1D0F1F0E1F09180FC6
:102CA00040341F0F200F21101F0C1D101D0C1C0C79
:102CB0001F0C240C2F0C4C34210F0E351F091F0E36
:102CC0001C351D0F0E352009200E1C354034240FF5
:102CD000230F210F4C341F0F1D0E1D091D0F00392E
:102CE000AD001A091F091F092309230C1F0C5C34AE
:102CF000240C230C210C240C1D0F1C0C180C1F0C75
:102D0000200C210C1F0C1E0C1D0C1F09210923096E
:102D10001F09240C230C210C240C1D0E1D091C0C56
:102D2000240C1A0E1A090E351F091F09000C1F0961
:102D30001C351F090009180E1F0C240E1F0C1C0C3B
:102D40001809240E200C1D0C1809403400090E35FA
:102D50001809180918094C3418091C35180C0E35B7
:102D60001809403400091F091F091F094C341F09A5
:102D70001C351F0C1F095C3400091F0C0E351F0683
:102D80001F06003831051E091E091D091D091C0CEE
:102D90001C35180C00110000000000000401F902AD
:102DA0000C2800003105000016000000AD000000F6
:102DB0000000000000000000842A00003103000031
:102DC00016000000AD000000000000000000000040
:102DD0005934203541001C0C1F0C240F1F0C210CF2
:102DE0001F0F5F0A18071C0A1F07240C230A21075C
:102DF0001F11210A2107210A210C2407230A210778
:102E00001F11210A1F07210A1F071A0C1C0C181179
:102E10004C3417350039EE00200A2007200A20071D
:102E2000600F1F0A1F071F0A1F075F0F1D0C1D0CD5
:102E30001D0C1A0C1C11180A1807240A2407230C4D
:102E40001F0A2107610F610A2107230A2407260CA4
:102E5000240C230C210C59341F1120350039AD00EE
:102E60007034240A2307240A1F071C0C240C231087
:102E70001F0A1F071435210F230F20352411003896
:102E800031032D0C2B0729072807260C2D0C2B0CA2
:102E9000290728072607240C2B0C75208D36290CB2
:102EA000290728079F3626075934240923092109B1
:102EB000B63623094C3424110000290C29072807B1
:102EC000260759342409230921092309241100382C
:102ED000310503304C341C3541000C0F0C0C130C25
:102EE0000E0F0E0C130C0C0F0C0F0E0C0E0C130F00
:102EF000110C0C0C110F100C170C100F0E0F130FE0
:102F0000130C0C0C0E0C4334100C17350039EE006A
:102F1000110F110C0C0C100F100C0C0C0E0F140FC9
:102F2000130F0C0C100C150F100F110C110C100FAF
:102F3000150F120F0E0C110C100C5C340E0C1C35FE
:102F40000039AD00100C100C130C0C0C100C130CF1
:102F5000100F0F35110F130F1C35100C130C0C0F25
:102F6000110F130C130C100F150C150C57200E0F0E
:102F70004C34130F100C4334D436130CFF360C0FA3
:102F800000000E0F130F4C34100C130C0C0F0330F9
:102F900000000000F8000002682C0000310500006D
:102FA00019000000AD00000000000000000000005B
:102FB0006C2D00003103000019000000AD0000007E
:102FC00000000000000000007034323541000009AC
:102FD00030090009300900093009300C00093409B2
:102FE0000009340900093409340C0006340632069D
:102FF00030062D092B0900092B092B0C0006300681
:103000002D062B062809260900092409240C240C66
:10301000280C2B092809240C2B0928092609240926
:10302000260928092B0C280C2B0C300934093209ED
:1030300030092B0B2B062D092B0930093009300CD8
:103040002909280926092409260928092B092B09F9
:1030500030092D062B0628092609240F00092B0903
:1030600000092B0900092B092B0C00093409000960
:10307000340900093409340C0006340632063006DF
:103080002D092B0900092B092B0C000630062D06F3
:103090002B062809260900092409240C240B2606DE
:1030A0002809260928092B092D092B0930092D0982
:1030B0002B092B092D0B2D062D092B09280B280672
:1030C00026092409260928092B0C280B2B062D0973
:1030D0002B093009300989208B30300C2330001146
:1030E00000005C3432354100240C240C240F1F0CEA
:1030F0001F0C1F0F240C280C2B0C1F0C1D0C1F0C5D
:10310000240C180C180C1F0C180F1F0C230C1F0F6D
:10311000240C230C21091F091D091C091F0C1A0C62
:10312000240C180C240C280C290C1F0C1D0C1F0C33
:10313000240C180C240C240C240F1F0C1F0C1F0F24
:10314000240C280C2B0C1F0C1D0C1F0C240C180C11
:103150002B0C240C2B0C240C1D0C1F0C240C280CE9
:103160002B0C290C2B092809240C2B0C1F0C240CCC
:1031700049204B30180C11301811000000000000DD
:103180003901F402602E0000310500000A00000041
:10319000AD00000000000000000000007A2F0000D9
:1031A000310500000A000000AD0000000000000032
:1031B000000000004C3420350039AD002B0C2809EC
:1031C000240C2B0C290969092609000C000F290C75
:1031D0002609230C290C280968092409000F7034DA
:1031E00018061A061C061F06210F610923091F096C
:1031F0001D091F111D0F5D09150918091D095D091C
:1032000015091510410000383105593417350039BA
:10321000EE00000C180C170C18091309530F000FBF
:10322000000C180C170C18091C095C0F000F1D0C62
:103230001C0C1A0C18091D095D0C1C0C1A0C180C1E
:10324000180E1A091A0F003831034C34240E2609BF
:10325000660F7034000C240C230C24091F095F0F27
:10326000000F000C240C230C24092B096B0F000FFA
:10327000003831051D091D091D091D091D091C09FD
:103280001A091D095D0F00091A091C091D091C0CEA
:103290001C0C1C091A0918091C095C0F000F150CDD
:1032A000170C180C1A09150955091509170C1809D6
:1032B0001A0918091F095F115F091F091F0C7F34C4
:1032C00018091A091C091D091F0C1C09180C1F0CD0
:1032D0001D095D091A09000C000F1D0C1A09170CB5
:1032E0001D0C1C095C091809000C000F0038310383
:1032F0007034000C200C240C290C280C2B09240EF3
:103300000009003831051C091D091C091D091C098B
:103310001D091C0918091A095A0E00090038310341
:103320007F3424092609280929092B0C2809240C93
:103330002B0C290969092609000C000F290C260904
:10334000230C290C280968092409000C000F70348B
:10335000210C2D0C2B092909280929092B0E2409D8
:10336000240C00097F34280929092809240929097E
:10337000280924092D092B096B11000C70341F0931
:103380001F092909280926092809ED2019312410C7
:1033900000090038310630350039AD0029096909C6
:1033A000280924091F095F0F5934000C240C230C31
:1033B00024091F095F11000C240C230C240928097F
:1033C00068112909280926092409230F2809260933
:1033D00024092309210F26092409230921091F0C87
:1033E0001D0C2411293059342B0C2809240C2B0CCA
:1033F000290969092609000C000F290C2609230C4C
:10340000290C280968092409000C18091A091C0943
:103410001D092B0C2809240C2B0C290969092609E4
:10342000000C000F290C2609230C290C2809680917
:103430002409000F70340038310518061A061C06DE
:103440001F06210F610923091F091D091F0F5F09AD
:1034500021091D091C091D0F5D09150918091A0903
:103460001C091809180C1809180E1811000043340B
:103470001C350C1113110E0F0009140E15115C34BC
:10348000110C110C110C110C100C100C150C150C4E
:103490000E0C110C150C180C170C130C130C130C30
:1034A0004C3441000C0C0C0C0C0C0C0C0B0C0B0CCD
:1034B0000B0C0B0C090C090C090C090C130C130C4C
:1034C000130C130C110C110C110C110C110C140C0D
:1034D0000C0C110C130C130C130C130C130C130CFD
:1034E000130909090C0910090C0C0C0C0C0C0C0C20
:1034F0000B0C0B0C0E0C0C090B09090C090C090C1C
:10350000090C130C0A0C130C110910090E0C0E0CEB
:103510000E0C0E0C110C110C140C0C0C0C0C0C0CD5
:103520000C0C0C0C090C0D0C100C090C110C110CD2
:10353000110C110C110C110C110C110C11091109A9
:1035400000091109110900091109110900091109DE
:10355000110C000F0C0913090C0913090C091309AC
:103560000C09130913091109130911091309110988
:1035700013091109130911091309110914090E0975
:1035800014090E0909091009090910090909100986
:103590000909100911091409180914091109140954
:1035A00018091409100913091809130909090C0944
:1035B000100915090E0C0E0C0E0C000C0009130955
:1035C000130F130C0C0913090C0913090C09130927
:1035D0000C09130913091109130911091309110918
:1035E00013091109130911091309110914090E0905
:1035F00014090E0909091009090910090909100916
:1036000009091009110915091809150911091709DE
:103610001A091709100917091A09100915091009BB
:103620000C090909110C00091109000C11091109F3
:1036300051091109110C130909090C091109130C7D
:10364000000C100FED202931100C0C0C100C0C0C80
:10365000130F00091309130C0C0910091309180999
:10366000580F0B090E0911091309150917091A0931
:103670001F0909090C0910091509550F13090C092F
:1036800010091309160918091C091F0911090C0949
:103690001109130911090E0913090B0910090B0966
:1036A00010090B0909090C090E0915090E09100961
:1036B00015091809580F110C0C0C090C130C1B30B0
:1036C00018111F0F1F092109230C1F0F200F211193
:1036D00018091F091C091F0918091F091C091F09BE
:1036E00013091D091A091D0913091D091A091D09C4
:1036F00013091D091A091D0914091D091A091D09B3
:1037000015091C0918091C0915091C0918091C09A7
:1037100011091D0918091D0911091D0918091D099B
:10372000100917091A09170915091C0918091C0994
:103730000E091809150918090E091809150918099B
:103740005C3400098D361309130CB6361309130EB9
:103750004C34FF361011000000000000ED000302A1
:103760004C3000003103000019000000EE000000A2
:1037700000000000000000000633000031050000DA
:1037800019000000AD000000000000000000000073
:1037900070343235410030062E062D092D092D09D1
:1037A0002E062D062B092B092B0930092D09290975
:1037B0002B092B09290E2409290929092B092B0971
:1037C0002D0B2E0630092E092D092D092B092B0949
:1037D000290E2409290929092B092B092D0B2E064D
:1037E00030092E092D092D092B092B09290E300628
:1037F0002E062D092D092D092E062D062B092B0924
:103800002B0930062E062D092D092D092E062D0611
:103810002B092B092B0930092D0929092B092B0903
:103820001220291000005C343235410000091D09C6
:103830001D091D0900091C091C091C0900090009B2
:103840001D0900091C0900091D091D0900090009BD
:103850001D0900091C0900091D0900091D090009AD
:103860001D0900091C0900091D091D09000900099D
:103870001D0900091C0900091D0900091D0900098D
:103880001D0900091C0900091D091D0900091D0960
:103890001D091D0900091C091C091C0900091D0935
:1038A0001D091D0900091C091C091C090009000942
:1038B0001D0900091C09102000091D091D0F000029
:1038C000000000005B01F402283600003105000012
:1038D0000A000000AD000000000000000000000031
:1038E000BE360000310500000A000000AD000000F7
:1038F00000000000000000005C341835340E34096C
:10390000340C32093409370F390C370C340E3709AF
:10391000340C320C30114100370C39093709340CA2
:10392000300C320E3409320F2D0C30092D092B0CBE
:10393000300C340C37093409320F340E3409340C8E
:1039400032093409370F390C370C340E3709340C6F
:10395000320C30111020340E3709340C320C301177
:10396000000C00004034183500092B0930092B09E0
:103970002F0F3209300930092F092D092F09300C7A
:1039800000092D0930092D092F0F30092B092909AC
:103990002B09280F340C35093409300C2B0C2F0E51
:1039A00030092F0F290F280C2B0C300F2F0F000977
:1039B0002B0930092B092F092B092F092B09300955
:1039C0002B0930092F092D092F09300C0009300966
:1039D0002B0928092B0C290C28092B0929092B094B
:1039E000280F3409320930092F0930092F092D0910
:1039F0002B0929092D0930092D092C092D092F0C16
:103A00002D092B09290C280929092B092809300E11
:103A100030092F0F00093009320930092F0C2D0C05
:103A20003209300930092F092D092F09300C0009FE
:103A300030092D0930092F092E092F0C300C2F0CBD
:103A40002D0C2B0C2A0926092D0930098D362F0F34
:103A5000B6363009280926092809D4362410000072
:103A600030342035180F1D0F1C0F1D0C1C0C1A0FA5
:103A70001F0C1D0C1C0C1A091C09180F1810180912
:103A80001C091F0F1F0F000C150C180C1C0C1F0F0E
:103A90005F091D091C091A09180F1D0F1C0E1C09AE
:103AA0001D0C1C0C1F0C1C091809170F1811180FDE
:103AB00021091F091D091C091A091D0921091D09D0
:103AC0001C0F1D091C091A0C18091A091C091809D0
:103AD0001F0F1F0C200C210E21091F0C1D0C1C0E8A
:103AE0001C091D0C1C0C1A0E1A091F0C200C210C91
:103AF0001F0C1D0C1C0C1A0F1F0C1D0C1C091F0980
:103B00001D091F091C100000000000005401F703EC
:103B1000903700003103000019000000EE000000A3
:103B20000000000000000000FC370000310300002E
:103B300019000000EE00000000000000000000007E
:103B4000F83800003105000019000000AD00000049
:103B500000000000000000007034643541000009DE
:103B600020092509270929092C09270929092209DA
:103B70002009250C250E2209200C250E2209200CD7
:103B8000250E270929092C092909290927092509A9
:103B9000270C2C0E2C09290C2E092C09290C250C7C
:103BA000270E29092209200925100E2000005C3467
:103BB000643541001D0F1D0C1E0F1D0C1D0C1D0F2B
:103BC0001D0C1D0F1D0C1D0F200F1E0920091D0CA3
:103BD0001B0C190C0D0C19091809160C0F0C1B0CD9
:103BE000180C0D0C1D0F0720000000000000000045
:103BF0003901F402F0390000310500000A0000002C
:103C0000AD0000000000000000000000463A000087
:103C1000310500000A000000AD00000000000000B7
:103C20000000000013480168134A11430160134863
:103C30000168134A1143016012480168124A114099
:103C4000016012480168124A114002D01148006810
:103C500000471148804711480047FEE7FEE7FEE7AE
:103C6000FEE7FEE7FEE700000D480E490C4A0E4B4A
:103C70007047000034100240010000000C000050AA
:103C80000800000000000050F3FFFFFF100000508C
:103C9000020000000400FF1F693D0008C100000889
:103CA00008020020080600200802002001E004C0ED
:103CB000091F0429FBD28B0701D50280801CC9078C
:103CC00000D00270704700290BD0C30702D00270E9
:103CD000401C491E022904D3830702D50280801CA0
:103CE000891EE3E70022EEE70022DFE77047704716
:103CF0007047754600F024F8AE4605006946534605
:103D0000C008C000854618B020B5FFF7ADFF60BC05
:103D1000B64600260027C0C5C0C5C0C5C0C5C0C5C1
:103D2000C0C5C0C5C0C5403D490849008D46704763
:103D300010B50446C046C0462046FCF70CFA10BD3C
:103D4000004870470000002001491820ABBEFEE784
:103D500026000200704700000248016802220A4360
:103D600002607047047C00400E4801680122114344
:103D700001600D4841680D4B0B400D49096819431E
:103D80004160110602680A43026001688901FCD59E
:103D9000816802220A438260816838220A40102A20
:103DA000FAD1704700200240001002400000FFFFDF
:103DB000100FFF1F10B5144801462C3900230B606B
:103DC000124A1178124C2478A14200D110BD11780A
:103DD0004900104C615E1478312C01D013785B1CC3
:103DE0001370012905DB00220260001F49000160F9
:103DF00010BD031F00221A60002901D4026010BD0B
:103E000049004942016010BD3C2C0140C80000201F
:103E1000C900002064000020F0B583B0002849D11B
:103E20000091414B0024DC605868082210431021A7
:103E3000884358601A62052006070192B262306812
:103E4000402738438025A843306020461968012266
:103E500002921143196072B6C021C94332680A4008
:103E60003260F2680A40F260F2683A43AA43F260B4
:103E7000F2680A40F260196804220A431A6062B6C6
:103E80001946083909684907FAD50199B1623168BC
:103E90003943A9433160996B401A0299890240184D
:103EA000611C042C0C46D1D320490B78022B04D87A
:103EB000581C0870002003B0F0BD1D4A1578690039
:103EC000117084B21B4E33889C4203D80746002BE6
:103ED00003D003E0DF1C002B00D10746378038B247
:103EE000EA07134B01D1963000E04B30A042029A12
:103EF00002DA01200143197019780F2008400728C1
:103F000003D00E2803D1022003E0104601E0002078
:103F10000290009A002A04D0029A002A01D049088F
:103F2000197003B0F0BDC04608240140CD00002048
:103F3000CC000020CA00002000B5A7B00120010776
:103F4000E44B1C1F22680A4320942260E2490A685D
:103F500004273A430A6019460C390A68232313439D
:103F60000B6005231C0721680C22219291432160DC
:103F7000E168082222921143B943E160D74ED84943
:103F8000716000212491B16033600C9005043168A8
:103F90002942FCD021698907D1480BD57D2109012F
:103FA0007060249AB260336032682A42FCD0491EA5
:103FB0000A04F5D10B935F21C94303915F31C948CE
:103FC00001602160249AC260E2604023A3612168FD
:103FD000C54801400C980003199009182160A76298
:103FE0002168102007900143202008908143216020
:103FF0002168219881432160E16839432298C043B8
:104000000140E160A3610993A362B8490A70216885
:104010003943019001402160AB2107222397259469
:1040200004E04900A762521E002B1CD04BB2002BAB
:1040300001DA182300E028230220E050A7611306CC
:10404000EFD1044625980068219FB843259F38602A
:104050002598C06804270743229887432046259C5B
:10406000E760239FDDE714900998A06190200590F8
:1040700070602498B0600B98306030682842FCD0A3
:104080000C9AD3021593934908681843086090026C
:1040900011901A38F44BD8609103586A1291084372
:1040A000586224985860184620380168114301600E
:1040B0000D20C002194608390A6802430A601868D0
:1040C0000799084318600320069080042168814303
:1040D0000C98C00408182060606A08990843606260
:1040E000181F016868220A4302601868119A104379
:1040F0001860DE4A106822990843B8431060106ABD
:104100000899084310621868159A1043084318600C
:10411000143B04930C9919604803D54A1B90106016
:1041200008056C4B1A6802431A60CA07D1481F92EF
:10413000026088050A46D04B39461F6807431F6056
:10414000684B1868084322998843186061490868D9
:10415000104308600698C043C44F3B6803403B606F
:104160000B46F868104314998843F860186A1043A6
:104170001862186A8007FCD50C9FB80419465B6961
:1041800003434B61209908681F9A10430860BB4B9A
:1041900018460838026814990A43026018683843C0
:1041A0001860119898607804B1490860FBF7DAFF4D
:1041B000B34800880290FF200090F4300A90B14A82
:1041C0001088411E118000280B9F17D02498AE49FB
:1041D0000880AE4A1078411E1170002800D028E3F4
:1041E0000021AB481391018001211091A748017073
:1041F000A848008800281DD0401E1DE0A148A649FF
:104200000180A6480078A6490978014300D1CDE293
:104210000020A4490880A4490978002901D000F0B1
:104220005DFDA24A1278002A01D000F04DFD18234E
:1042300000F04BFD9E480088964908809D48007814
:104240001690139A10469C490E920A4613E01D9A46
:104250009161D18D80384843C117090E4018000A7A
:104260000E9909188A480E91018040321799481C0E
:10427000032900D34CE2179010680028F5D01346AC
:10428000383319781398401C13901E9100291D9201
:104290001A9318D07F480088002800D0B7E11E98F4
:1042A000401E1A990870508D002800D1AFE11146C8
:1042B000D28C098D914200D8A2E1101880B28842B8
:1042C00000D3A1E1A1E1108C209013463B330C995F
:1042D00018931CE04010024010ED00E010E000E0F8
:1042E00080BB000000140050FFCFFFFFED01002055
:1042F0000F2101408006800F189B19541F982090B1
:104300001D9A1E98C0B2414241410028C2D1209B53
:10431000581C1F901084576898B240001C97385A58
:1043200000235385D384D0831B9A10422AD1C20420
:10433000D20E42D0511ECFB260A1C95D1E911A9A11
:104340001170810600D1F4E01299084266D11699E5
:104350000A183F210F910A405E49895C343A0C2AC1
:1043600000D30B090907C90E5B4A515AD9401D9A5F
:104370000D91D184010600D5B2E01F99209140062D
:10438000BFD4DCE0199908420BD10105890F189BB5
:104390005A5C002AB2D0521E5A54504908401D9A05
:1043A00008E0159908421CD1119908421D9A4AD17A
:1043B0004A49084010842090A3E7420698D4820618
:1043C00000D49DE11F21084000D1BFE0169A1218C9
:1043D00038490A70102800D2DBE0203A16920A70A1
:1043E0008CE7072109020840109A5102884200D147
:1043F000C1E01102884200D1AFE000281D9A00D030
:10440000E2E02098801C209010841F9880B2400029
:104410001C99085A1A494018906072E72099891C23
:104420001D9F20913984C1B2B983BB611F9989B2A4
:1044300049001C9A515A124A89183A467961400635
:1044400000D55EE77BE08105890FC0467944097994
:1044500049008F4401A9A0B011991939C0B248434D
:10446000000A1D9A9085AFE0202C01400004005006
:1044700000E100E01024014008270140107C0040CA
:1044800068010008D0000020D2000020EC010020CC
:10449000E4010020E00100203F06000004020020AB
:1044A000E601002062000020610000206000002082
:1044B000DC010020E8010020D800002002040608EA
:1044C000090C10121820243040486090C05054A8A5
:1044D000FF0000000C5000084C500008FF030000D3
:1044E0001F9989B249001C9A515A2A46803A0A40BB
:1044F000802A1D9A05D11C97209FBF1C1F971784E7
:104500001C9F072F00D238E74A0B12D1802910D305
:104510000A4620910F990A400BD0169A20995118FB
:104520000F9A1140FC4A525C34390C294FD31309BD
:104530004EE01F9920911D9A400600D5E1E600202B
:1045400050861A9948708870D086DAE6F848006874
:104550008179F84816910170D0E62098801C1D9A48
:10456000209010841F9880B240001C99085AF2498C
:104570004018D060C5E62098801C1D9A20901084B9
:104580001F9880B240001C99085AEB4940181061EE
:10459000B7E61692B2E6C0B2E54909688988414398
:1045A000C809E6490880A9E6C0B21D9A1168896861
:1045B0004143118608E01D9AD3861A998B70C0B2C8
:1045C00011680969414391861F98209099E600235C
:1045D000DBA1C95D1207D20EDF4FBA5ADA401D9B2C
:1045E0001A850D9F974201D2D21B00E0BA1A51439F
:1045F000090B59851F9920911A4640069FD580E6E0
:10460000101A80B2884200D808461D9AD084D08BF8
:10461000800600D129E6108E00281DD0518E002979
:1046200016D11A9A53781E931D9AD7682097209F07
:10463000FF187B781F93978D1F9B5F433F0AD78599
:104640001E9A209B1B789A4202D2521C1A9B5A70C7
:10465000814204D8481C03E0908DD08502E0002000
:104660001D9A5086D08B400437D490681346928CA4
:10467000110A405CD98C8A189A849A8E002A3DD0FF
:10468000DA8E002A1A461DD11A9B9B7812691F9256
:10469000D218527820925A1C1A9FBA701F9F3F78E6
:1046A0001F971E92D7B21F9A974200D81E9B1A9A44
:1046B0009370209B802B02D9A84AD318F233591843
:1046C0001D9AD1841146928EC98E491C8BB2934299
:1046D00000D300211D9AD186BBE553699169080A70
:1046E00080B2181880781746928B8A18BA611B8896
:1046F0001B029A4200D9AAE51146A8E51A46A8E588
:10470000C80703D000201D9A1060AEE51D9AC1E5D0
:104710001398C0B2411E88419149097800290C992B
:1047200000D001460029824A00D082E0106800686B
:1047300000287BD000278B490F708B490F807E4962
:104740004318136098797B4908701F9398887B49B8
:1047500008800399854806E0002202601831403045
:104760007F1C002965D01F9AD2799742F4D21E91FE
:1047700040212090FFF7B6FA1E981F9908180146AD
:104780006831209A1160816E6B4A8918209B5960AC
:10479000C16E8918209B9960416F8918209BD96050
:1047A0001E99C06F821820980261D7E700217048D7
:1047B000017070481D91017002226F4882626F493A
:1047C0000888401C088080B2202800D28DE26A4808
:1047D0001E9282620998A061A062206804211F9144
:1047E0000843229988432060B920072106E0400051
:1047F000A262491E209A002A00D16BE142B2002A2F
:1048000001DA182200E028221E9BA3501F9AA26101
:104810000B062093EBD12368219FBB432360E36801
:104820001343229FBB43E3600B9FE0E700204C490A
:10483000087053480088534A118808181F90108048
:1048400051480088002800D11CE150480088504A97
:1048500011880818108081B20A9AF33A92B29142F4
:1048600000D20FE1C0B24A4908804A4800780028C7
:1048700000D0D7E02399A1620998A062206808437C
:104880002299884320600721069A04E05200A3621F
:10489000491E002817D050B2002801DA182000E085
:1048A0002820149B2350239BA3610806EED120905F
:1048B0002068219FB8432060E0681843229FB843D6
:1048C000E0602098E2E72068239F384322998843DC
:1048D0002060314800682090020C072304E0520059
:1048E000A7625B1E002819D050B2002801DA1820F8
:1048F00000E0282014992150A7611806EFD12768FD
:1049000021998F432760E76823990F4322998F43AA
:10491000E760239FE3E7C0460C5000082068384357
:104920002299884320602098020A07233BE0C04672
:10493000D8010020E801002068010008DC01002007
:1049400000000000000000F0B284755741392B1CB4
:1049500015333118100000004C5000080EFEFFFF08
:10496000E6010020EC010020E0010020D80000203A
:104970006000002061000020001400506200002050
:10498000E4010020D200002004020020FC010020ED
:10499000F8010020ED010020F00100205200A76284
:1049A0005B1E002816D050B2002801DA182000E063
:1049B000282014992150A7611806EFD12768219962
:1049C0008F432760E76823990F4322998F43E7605D
:1049D000239FE3E720683843229988432060072219
:1049E000209F04E07F00A162521E002817D078B2F9
:1049F000002801DA182000E028201499215023997A
:104A0000A1611006EED1236821998B432360E368EE
:104A100023990B4322998B432399E360E2E70C9897
:104A2000FB490870072107E02398A061A061A062FC
:104A3000481E090601460CD02698400026AA107090
:104A400020698007F0D50120269A024326A802702B
:104A5000EAE7F0490868401C08601199E13926AA84
:104A600012784A43EC4951184A0E8918C909EB4A91
:104A70001180EB490968884204D10998A061249803
:104A8000E8490880E54800881F994018E6490880F1
:104A900001B20A98814202DCE448814201DAE2492B
:104AA0000880E3480078411CC8B23228249800D01E
:104AB0000846DD4909882091DE490A78C3B293424D
:104AC000FBD0DB4B1A785200DB4F2099B95218709B
:104AD000FFF775FB0998A061059870601D9AB26098
:104AE000376030682842FCD00998A06120683021E6
:104AF00088432060E0680799084308998843E0608C
:104B00002068219988432060E0681F990843229912
:104B10008843E0600A20C9497160B260376031683B
:104B20002942FCD0401E0104F5D104980260C4481B
:104B3000C2618261103802600168C907FCD041205F
:104B40004001BF4A116881431160BE4FBE490868E9
:104B50001E9A1043086027204002BC4A1168014396
:104B60001160384638381D99016030BFB84A116865
:104B7000012320931943116039463C390A68B54B2B
:104B80001A40B54B1B6813430B6020990A0639463F
:104B900040390B6813430B600A689201FCD5016829
:104BA0001E9A114301600B9B016838220A40102AAB
:104BB000FAD10F20000270601D98B0603360F74F8B
:104BC00030682842FCD0F44B1878F9490969C907C4
:104BD0000CD1421CD1B2914200D108461870032872
:104BE0001D9A00D1D4E11F2807D1D1E1001FC0B226
:104BF0001C280FD3F5481D9A02700C991046C9075E
:104C0000A4D0C0B22099FFF707F9E44F0021002893
:104C10002098F4D015982030E44A116801431160BF
:104C2000012004990860099AA2612068DD490840C2
:104C30001999084320601F9FA762206807990843BD
:104C40000899884320602068219988432060E068A3
:104C50003843019B1840E060A261A2620021D24863
:104C6000209101702168394319402160AB2107224E
:104C70001E9804E04900A762521E002B16D04BB2CA
:104C8000002B01DA182300E02823E050A761130667
:104C9000F0D12768219887432760E7681F9807436A
:104CA00022988743E7601F9F1E98E3E70998A06159
:104CB00005987060209AB2600B9F37603168294276
:104CC000FCD0BF48028010E02823B54F149CFC5054
:104CD00001235A40BC4B1A700B9F259C491CCAB239
:104CE000032A00D80846B74908700998A0612068CF
:104CF000302188432060E068079908430899884379
:104D0000E0602068219988432060E0682399084387
:104D100022998843E060F02070600020B060376026
:104D200031682942FCD0A94B1978A14A1269D207EF
:104D300009D14A1CD0B2904200D101461970032912
:104D400008D10A4607E01870091FC9B21C2906D20B
:104D5000012004E0002214981F2900D01046099970
:104D6000A16121688F4A1140199A11432160239B48
:104D7000A3622168079A1143089A91432160216830
:104D8000219A91432160002787490F70E1681943F8
:104D9000229A9143E16000280C9900D18AE0022810
:104DA00000D19DE0012801D0FFF710FA1C91F8070F
:104DB00000D0B1E086480078401CC1B2029A8A4215
:104DC00000D2012082490870010600D199E0C1B2E9
:104DD000029A8A4200D29FE0784A12788A4200D131
:104DE0009AE0764A107000227A4802707A4802806F
:104DF000880070494058431878480360987978498A
:104E000008701F93988877490880039F76492CE0A3
:104E1000ED010020F00100208070FEFF0002002064
:104E2000F401002004020020D20000200EFEFFFF4B
:104E3000C9000020C80000206400002080BB0000E2
:104E4000202C014040100240107C004000700040C7
:104E5000002002400000FFFF100FFF1F002008602D
:104E600018374031521C002F56D01F98C07982420B
:104E7000F4D22091402120981E921D97FEF732FF18
:104E80001F981D9FC01901466831209A1160816EDC
:104E9000484A8918209B5960C16E8918209B9960E7
:104EA000416F8918209BD9602099C06F80181E9A85
:104EB0000861D5E700210C9F1F91F8070AD02097C1
:104EC000C8B200273946FEF7A7FF01210028F4D019
:104ED000209F00E01F9801217940022800D061E75F
:104EE000F80701D0FFF772F904203F4900220A6059
:104EF0004031401EFAD13D48028030480270FFF731
:104F000065F939482399002202604030491EFAD1E0
:104F100036480280294802701C98C00701D0FFF76C
:104F200055F933480078401CC1B20C2900D9012042
:104F30002F490870C0B2002823D01F490988814238
:104F400001D1FFF743F91C4908800099294A1180D3
:104F50000021294A1180144A11700999A161401E4B
:104F600080B221994843254A1158254B19601018E1
:104F70000289244B1A804068401823490860FFF7D3
:104F800025F90998A06100200B490880FFF71EF958
:104F9000401E18703EE6C046EE0100204010024060
:104FA00000140050FFCFFFFFED010020202C014036
:104FB000000400506801000804020020E6010020FF
:104FC000620000206100002060000020EE0100204F
:104FD000CE000020EC010020E0010020D8010020DC
:104FE000E8010020DC010020D8000020E4010020BE
:104FF000D4000020F80100200002002064500008C6
:10500000F0010020FC010020F401002058595A5BF7
:10501000404142434445464748494A4B3031323388
:105020003435363738393A3B2021222324252627A8
:1050300028292A2B101112131415161718191A1BC8
:10504000000102030405060708090A0B800D4E0E35
:10505000280F0E100311061218133B146F15B51606
:105060000F187D190000000004A901005100000084
:1050700004A90100D842030051000000DCEB040049
:10508000F018010051000000CC040600684C02003A
:105090005100000034510800385C0100510000004C
:1050A0006CAD090020AA0000510000008C570A00D6
:1050B000B05B0000510000003CB30A0050AF00009C
:1050C000510000008C620B00E8F700005100000066
:1050D000745A0C0008080100510000007C620D00A9
:1050E00090A60100510000000C090F0020110100E2
:1050F00051000000045100080000002008060000D4
:045100002001000882
:04000005080000C12E
:00000001FF
